{
  "_format": "hh-sol-artifact-1",
  "contractName": "Dola",
  "sourceName": "contracts/Dola.sol",
  "abi": [
    {
      "inputs": [],
      "stateMutability": "nonpayable",
      "type": "constructor"
    },
    {
      "anonymous": false,
      "inputs": [
        {
          "indexed": false,
          "internalType": "uint256",
          "name": "riderNumber",
          "type": "uint256"
        },
        {
          "components": [
            {
              "internalType": "int256",
              "name": "lat",
              "type": "int256"
            },
            {
              "internalType": "int256",
              "name": "long",
              "type": "int256"
            }
          ],
          "indexed": false,
          "internalType": "struct Dola.coordinates",
          "name": "pick",
          "type": "tuple"
        },
        {
          "components": [
            {
              "internalType": "int256",
              "name": "lat",
              "type": "int256"
            },
            {
              "internalType": "int256",
              "name": "long",
              "type": "int256"
            }
          ],
          "indexed": false,
          "internalType": "struct Dola.coordinates",
          "name": "drop",
          "type": "tuple"
        },
        {
          "indexed": false,
          "internalType": "uint256",
          "name": "escrow",
          "type": "uint256"
        }
      ],
      "name": "RiderDetails",
      "type": "event"
    },
    {
      "anonymous": false,
      "inputs": [
        {
          "indexed": false,
          "internalType": "uint256",
          "name": "riderNumber",
          "type": "uint256"
        },
        {
          "indexed": false,
          "internalType": "uint256",
          "name": "arrivalTime",
          "type": "uint256"
        }
      ],
      "name": "RiderPicked",
      "type": "event"
    },
    {
      "anonymous": false,
      "inputs": [
        {
          "indexed": false,
          "internalType": "uint256",
          "name": "driverNumber",
          "type": "uint256"
        },
        {
          "indexed": false,
          "internalType": "uint256",
          "name": "bills",
          "type": "uint256"
        }
      ],
      "name": "cashMoney",
      "type": "event"
    },
    {
      "anonymous": false,
      "inputs": [
        {
          "indexed": false,
          "internalType": "uint256",
          "name": "riderNumber",
          "type": "uint256"
        },
        {
          "indexed": false,
          "internalType": "int256[]",
          "name": "location",
          "type": "int256[]"
        }
      ],
      "name": "imHere",
      "type": "event"
    },
    {
      "anonymous": false,
      "inputs": [
        {
          "indexed": false,
          "internalType": "uint256",
          "name": "usrNumber",
          "type": "uint256"
        },
        {
          "indexed": false,
          "internalType": "uint256",
          "name": "pairNumber",
          "type": "uint256"
        },
        {
          "indexed": false,
          "internalType": "uint256",
          "name": "cancelFee",
          "type": "uint256"
        }
      ],
      "name": "undone",
      "type": "event"
    },
    {
      "inputs": [],
      "name": "driveRequest",
      "outputs": [],
      "stateMutability": "nonpayable",
      "type": "function"
    },
    {
      "inputs": [],
      "name": "getNumber",
      "outputs": [
        {
          "internalType": "int256",
          "name": "",
          "type": "int256"
        }
      ],
      "stateMutability": "view",
      "type": "function"
    },
    {
      "inputs": [],
      "name": "getWaitingRiders",
      "outputs": [],
      "stateMutability": "nonpayable",
      "type": "function"
    },
    {
      "inputs": [
        {
          "internalType": "int256[]",
          "name": "loc",
          "type": "int256[]"
        }
      ],
      "name": "informRider",
      "outputs": [],
      "stateMutability": "nonpayable",
      "type": "function"
    },
    {
      "inputs": [],
      "name": "payDriver",
      "outputs": [],
      "stateMutability": "payable",
      "type": "function"
    },
    {
      "inputs": [
        {
          "internalType": "uint256",
          "name": "riderNumber",
          "type": "uint256"
        },
        {
          "internalType": "uint256",
          "name": "arrivalTime",
          "type": "uint256"
        }
      ],
      "name": "pickRider",
      "outputs": [],
      "stateMutability": "nonpayable",
      "type": "function"
    },
    {
      "inputs": [
        {
          "internalType": "int256[]",
          "name": "pick",
          "type": "int256[]"
        },
        {
          "internalType": "int256[]",
          "name": "drop",
          "type": "int256[]"
        },
        {
          "internalType": "uint256",
          "name": "tripCost",
          "type": "uint256"
        }
      ],
      "name": "rideRequest",
      "outputs": [],
      "stateMutability": "nonpayable",
      "type": "function"
    },
    {
      "inputs": [
        {
          "internalType": "uint256",
          "name": "",
          "type": "uint256"
        }
      ],
      "name": "userList",
      "outputs": [
        {
          "internalType": "address",
          "name": "",
          "type": "address"
        }
      ],
      "stateMutability": "view",
      "type": "function"
    },
    {
      "inputs": [],
      "name": "userReset",
      "outputs": [],
      "stateMutability": "payable",
      "type": "function"
    },
    {
      "inputs": [
        {
          "internalType": "address",
          "name": "",
          "type": "address"
        }
      ],
      "name": "users",
      "outputs": [
        {
          "internalType": "bool",
          "name": "isUser",
          "type": "bool"
        },
        {
          "internalType": "uint256",
          "name": "number",
          "type": "uint256"
        },
        {
          "internalType": "enum Dola.Status",
          "name": "state",
          "type": "uint8"
        },
        {
          "internalType": "address",
          "name": "currPairing",
          "type": "address"
        },
        {
          "components": [
            {
              "internalType": "int256",
              "name": "lat",
              "type": "int256"
            },
            {
              "internalType": "int256",
              "name": "long",
              "type": "int256"
            }
          ],
          "internalType": "struct Dola.coordinates",
          "name": "pickup",
          "type": "tuple"
        },
        {
          "components": [
            {
              "internalType": "int256",
              "name": "lat",
              "type": "int256"
            },
            {
              "internalType": "int256",
              "name": "long",
              "type": "int256"
            }
          ],
          "internalType": "struct Dola.coordinates",
          "name": "dropoff",
          "type": "tuple"
        },
        {
          "internalType": "uint256",
          "name": "arrivalTime",
          "type": "uint256"
        },
        {
          "internalType": "bool",
          "name": "driverArrived",
          "type": "bool"
        },
        {
          "internalType": "bool",
          "name": "inProgress",
          "type": "bool"
        },
        {
          "internalType": "uint256",
          "name": "escrow",
          "type": "uint256"
        },
        {
          "internalType": "uint256",
          "name": "paid",
          "type": "uint256"
        }
      ],
      "stateMutability": "view",
      "type": "function"
    }
  ],
  "bytecode": "0x608060405234801561001057600080fd5b506151aa806100206000396000f3fe6080604052600436106100915760003560e01c8063a797873811610059578063a797873814610134578063a87430ba1461015d578063ba2b3906146101a4578063de9e7da0146101ae578063f2c9ecd8146101d757610091565b8063315a9f011461009657806341664ebf146100bf57806354dee961146100d65780639e5d3610146100e05780639f4216e8146100f7575b600080fd5b3480156100a257600080fd5b506100bd60048036038101906100b89190613eb1565b610202565b005b3480156100cb57600080fd5b506100d4610a60565b005b6100de610f91565b005b3480156100ec57600080fd5b506100f5611b46565b005b34801561010357600080fd5b5061011e60048036038101906101199190613ef1565b61219b565b60405161012b9190613f5f565b60405180910390f35b34801561014057600080fd5b5061015b60048036038101906101569190614109565b6121da565b005b34801561016957600080fd5b50610184600480360381019061017f919061417e565b612a03565b60405161019b9b9a9998979695949392919061428a565b60405180910390f35b6101ac612aed565b005b3480156101ba57600080fd5b506101d560048036038101906101d09190614337565b61331f565b005b3480156101e357600080fd5b506101ec613a46565b6040516101f991906143d1565b60405180910390f35b600115156000803373ffffffffffffffffffffffffffffffffffffffff1673ffffffffffffffffffffffffffffffffffffffff16815260200190815260200160002060000160009054906101000a900460ff16151514610297576040517f08c379a000000000000000000000000000000000000000000000000000000000815260040161028e9061446f565b60405180910390fd5b6002808111156102aa576102a96141d5565b5b6000803373ffffffffffffffffffffffffffffffffffffffff1673ffffffffffffffffffffffffffffffffffffffff16815260200190815260200160002060020160009054906101000a900460ff16600281111561030b5761030a6141d5565b5b1461034b576040517f08c379a000000000000000000000000000000000000000000000000000000000815260040161034290614501565b60405180910390fd5b600073ffffffffffffffffffffffffffffffffffffffff166000803373ffffffffffffffffffffffffffffffffffffffff1673ffffffffffffffffffffffffffffffffffffffff16815260200190815260200160002060020160019054906101000a900473ffffffffffffffffffffffffffffffffffffffff1673ffffffffffffffffffffffffffffffffffffffff161461041b576040517f08c379a00000000000000000000000000000000000000000000000000000000081526004016104129061456d565b60405180910390fd5b3373ffffffffffffffffffffffffffffffffffffffff16600183815481106104465761044561458d565b5b9060005260206000200160009054906101000a900473ffffffffffffffffffffffffffffffffffffffff1673ffffffffffffffffffffffffffffffffffffffff16036104c7576040517f08c379a00000000000000000000000000000000000000000000000000000000081526004016104be90614608565b60405180910390fd5b600073ffffffffffffffffffffffffffffffffffffffff16600080600185815481106104f6576104f561458d565b5b9060005260206000200160009054906101000a900473ffffffffffffffffffffffffffffffffffffffff1673ffffffffffffffffffffffffffffffffffffffff1673ffffffffffffffffffffffffffffffffffffffff16815260200190815260200160002060020160019054906101000a900473ffffffffffffffffffffffffffffffffffffffff1673ffffffffffffffffffffffffffffffffffffffff16146105d5576040517f08c379a00000000000000000000000000000000000000000000000000000000081526004016105cc90614674565b60405180910390fd5b600160028111156105e9576105e86141d5565b5b60008060018581548110610600576105ff61458d565b5b9060005260206000200160009054906101000a900473ffffffffffffffffffffffffffffffffffffffff1673ffffffffffffffffffffffffffffffffffffffff1673ffffffffffffffffffffffffffffffffffffffff16815260200190815260200160002060020160009054906101000a900460ff166002811115610688576106876141d5565b5b146106c8576040517f08c379a00000000000000000000000000000000000000000000000000000000081526004016106bf90614706565b60405180910390fd5b33600080600185815481106106e0576106df61458d565b5b9060005260206000200160009054906101000a900473ffffffffffffffffffffffffffffffffffffffff1673ffffffffffffffffffffffffffffffffffffffff1673ffffffffffffffffffffffffffffffffffffffff16815260200190815260200160002060020160016101000a81548173ffffffffffffffffffffffffffffffffffffffff021916908373ffffffffffffffffffffffffffffffffffffffff1602179055506001828154811061079a5761079961458d565b5b9060005260206000200160009054906101000a900473ffffffffffffffffffffffffffffffffffffffff166000803373ffffffffffffffffffffffffffffffffffffffff1673ffffffffffffffffffffffffffffffffffffffff16815260200190815260200160002060020160016101000a81548173ffffffffffffffffffffffffffffffffffffffff021916908373ffffffffffffffffffffffffffffffffffffffff160217905550806000803373ffffffffffffffffffffffffffffffffffffffff1673ffffffffffffffffffffffffffffffffffffffff1681526020019081526020016000206007018190555080600080600185815481106108a2576108a161458d565b5b9060005260206000200160009054906101000a900473ffffffffffffffffffffffffffffffffffffffff1673ffffffffffffffffffffffffffffffffffffffff1673ffffffffffffffffffffffffffffffffffffffff1681526020019081526020016000206007018190555060008060003373ffffffffffffffffffffffffffffffffffffffff1673ffffffffffffffffffffffffffffffffffffffff16815260200190815260200160002060080160006101000a81548160ff02191690831515021790555060008060008060003373ffffffffffffffffffffffffffffffffffffffff1673ffffffffffffffffffffffffffffffffffffffff16815260200190815260200160002060020160019054906101000a900473ffffffffffffffffffffffffffffffffffffffff1673ffffffffffffffffffffffffffffffffffffffff1673ffffffffffffffffffffffffffffffffffffffff16815260200190815260200160002060080160006101000a81548160ff0219169083151502179055507fd492064edf7fcac5d4cf828f131afa14b0a5784d8bfdb01853e176cf5b0e2ec38282604051610a54929190614726565b60405180910390a15050565b600115156000803373ffffffffffffffffffffffffffffffffffffffff1673ffffffffffffffffffffffffffffffffffffffff16815260200190815260200160002060000160009054906101000a900460ff16151514610af5576040517f08c379a0000000000000000000000000000000000000000000000000000000008152600401610aec9061446f565b60405180910390fd5b600280811115610b0857610b076141d5565b5b6000803373ffffffffffffffffffffffffffffffffffffffff1673ffffffffffffffffffffffffffffffffffffffff16815260200190815260200160002060020160009054906101000a900460ff166002811115610b6957610b686141d5565b5b14610ba9576040517f08c379a0000000000000000000000000000000000000000000000000000000008152600401610ba090614501565b60405180910390fd5b60005b600180549050811015610f8e57600073ffffffffffffffffffffffffffffffffffffffff1660008060018481548110610be857610be761458d565b5b9060005260206000200160009054906101000a900473ffffffffffffffffffffffffffffffffffffffff1673ffffffffffffffffffffffffffffffffffffffff1673ffffffffffffffffffffffffffffffffffffffff16815260200190815260200160002060020160019054906101000a900473ffffffffffffffffffffffffffffffffffffffff1673ffffffffffffffffffffffffffffffffffffffff16148015610d44575060016002811115610ca357610ca26141d5565b5b60008060018481548110610cba57610cb961458d565b5b9060005260206000200160009054906101000a900473ffffffffffffffffffffffffffffffffffffffff1673ffffffffffffffffffffffffffffffffffffffff1673ffffffffffffffffffffffffffffffffffffffff16815260200190815260200160002060020160009054906101000a900460ff166002811115610d4257610d416141d5565b5b145b15610f81577f371a7676ba1a3c7f898deecee12f15abf07a92560af6d3f0a10f35d07189084f60008060018481548110610d8157610d8061458d565b5b9060005260206000200160009054906101000a900473ffffffffffffffffffffffffffffffffffffffff1673ffffffffffffffffffffffffffffffffffffffff1673ffffffffffffffffffffffffffffffffffffffff1681526020019081526020016000206001015460008060018581548110610e0157610e0061458d565b5b9060005260206000200160009054906101000a900473ffffffffffffffffffffffffffffffffffffffff1673ffffffffffffffffffffffffffffffffffffffff1673ffffffffffffffffffffffffffffffffffffffff16815260200190815260200160002060030160008060018681548110610e8057610e7f61458d565b5b9060005260206000200160009054906101000a900473ffffffffffffffffffffffffffffffffffffffff1673ffffffffffffffffffffffffffffffffffffffff1673ffffffffffffffffffffffffffffffffffffffff16815260200190815260200160002060050160008060018781548110610eff57610efe61458d565b5b9060005260206000200160009054906101000a900473ffffffffffffffffffffffffffffffffffffffff1673ffffffffffffffffffffffffffffffffffffffff1673ffffffffffffffffffffffffffffffffffffffff16815260200190815260200160002060090154604051610f7894939291906147c7565b60405180910390a15b8080600101915050610bac565b50565b600115156000803373ffffffffffffffffffffffffffffffffffffffff1673ffffffffffffffffffffffffffffffffffffffff16815260200190815260200160002060000160009054906101000a900460ff16151514611026576040517f08c379a000000000000000000000000000000000000000000000000000000000815260040161101d9061487e565b60405180910390fd5b6000600281111561103a576110396141d5565b5b6000803373ffffffffffffffffffffffffffffffffffffffff1673ffffffffffffffffffffffffffffffffffffffff16815260200190815260200160002060020160009054906101000a900460ff16600281111561109b5761109a6141d5565b5b036110db576040517f08c379a00000000000000000000000000000000000000000000000000000000081526004016110d290614910565b60405180910390fd5b600034101561111f576040517f08c379a00000000000000000000000000000000000000000000000000000000081526004016111169061497c565b60405180910390fd5b600115156000803373ffffffffffffffffffffffffffffffffffffffff1673ffffffffffffffffffffffffffffffffffffffff16815260200190815260200160002060080160019054906101000a900460ff161515036112ed573373ffffffffffffffffffffffffffffffffffffffff166108fc349081150290604051600060405180830381858888f193505050501580156111bf573d6000803e3d6000fd5b507f5b1b690b017b49e02e426b145ec66a70f4259c7a0a7bfb5609363922cec65eef6000803373ffffffffffffffffffffffffffffffffffffffff1673ffffffffffffffffffffffffffffffffffffffff168152602001908152602001600020600101546000808060003373ffffffffffffffffffffffffffffffffffffffff1673ffffffffffffffffffffffffffffffffffffffff16815260200190815260200160002060020160019054906101000a900473ffffffffffffffffffffffffffffffffffffffff1673ffffffffffffffffffffffffffffffffffffffff1673ffffffffffffffffffffffffffffffffffffffff1681526020019081526020016000206001015460006040516112d7939291906149e1565b60405180910390a16112e833613b12565b611b44565b60016002811115611301576113006141d5565b5b6000803373ffffffffffffffffffffffffffffffffffffffff1673ffffffffffffffffffffffffffffffffffffffff16815260200190815260200160002060020160009054906101000a900460ff166002811115611362576113616141d5565b5b0361175757600015156000803373ffffffffffffffffffffffffffffffffffffffff1673ffffffffffffffffffffffffffffffffffffffff16815260200190815260200160002060080160009054906101000a900460ff16151514801561140957506000803373ffffffffffffffffffffffffffffffffffffffff1673ffffffffffffffffffffffffffffffffffffffff1681526020019081526020016000206007015442115b15611582573373ffffffffffffffffffffffffffffffffffffffff166108fc349081150290604051600060405180830381858888f19350505050158015611454573d6000803e3d6000fd5b507f5b1b690b017b49e02e426b145ec66a70f4259c7a0a7bfb5609363922cec65eef6000803373ffffffffffffffffffffffffffffffffffffffff1673ffffffffffffffffffffffffffffffffffffffff168152602001908152602001600020600101546000808060003373ffffffffffffffffffffffffffffffffffffffff1673ffffffffffffffffffffffffffffffffffffffff16815260200190815260200160002060020160019054906101000a900473ffffffffffffffffffffffffffffffffffffffff1673ffffffffffffffffffffffffffffffffffffffff1673ffffffffffffffffffffffffffffffffffffffff16815260200190815260200160002060010154600060405161156c939291906149e1565b60405180910390a161157d33613b12565b611752565b6000803373ffffffffffffffffffffffffffffffffffffffff1673ffffffffffffffffffffffffffffffffffffffff16815260200190815260200160002060020160019054906101000a900473ffffffffffffffffffffffffffffffffffffffff1673ffffffffffffffffffffffffffffffffffffffff166108fc349081150290604051600060405180830381858888f19350505050158015611629573d6000803e3d6000fd5b507f5b1b690b017b49e02e426b145ec66a70f4259c7a0a7bfb5609363922cec65eef6000803373ffffffffffffffffffffffffffffffffffffffff1673ffffffffffffffffffffffffffffffffffffffff168152602001908152602001600020600101546000808060003373ffffffffffffffffffffffffffffffffffffffff1673ffffffffffffffffffffffffffffffffffffffff16815260200190815260200160002060020160019054906101000a900473ffffffffffffffffffffffffffffffffffffffff1673ffffffffffffffffffffffffffffffffffffffff1673ffffffffffffffffffffffffffffffffffffffff168152602001908152602001600020600101543460405161174093929190614a18565b60405180910390a161175133613b12565b5b611b43565b600115156000803373ffffffffffffffffffffffffffffffffffffffff1673ffffffffffffffffffffffffffffffffffffffff16815260200190815260200160002060080160009054906101000a900460ff1615151480156117f957506000803373ffffffffffffffffffffffffffffffffffffffff1673ffffffffffffffffffffffffffffffffffffffff1681526020019081526020016000206007015442115b15611972573373ffffffffffffffffffffffffffffffffffffffff166108fc349081150290604051600060405180830381858888f19350505050158015611844573d6000803e3d6000fd5b507f5b1b690b017b49e02e426b145ec66a70f4259c7a0a7bfb5609363922cec65eef6000803373ffffffffffffffffffffffffffffffffffffffff1673ffffffffffffffffffffffffffffffffffffffff168152602001908152602001600020600101546000808060003373ffffffffffffffffffffffffffffffffffffffff1673ffffffffffffffffffffffffffffffffffffffff16815260200190815260200160002060020160019054906101000a900473ffffffffffffffffffffffffffffffffffffffff1673ffffffffffffffffffffffffffffffffffffffff1673ffffffffffffffffffffffffffffffffffffffff16815260200190815260200160002060010154600060405161195c939291906149e1565b60405180910390a161196d33613b12565b611b42565b6000803373ffffffffffffffffffffffffffffffffffffffff1673ffffffffffffffffffffffffffffffffffffffff16815260200190815260200160002060020160019054906101000a900473ffffffffffffffffffffffffffffffffffffffff1673ffffffffffffffffffffffffffffffffffffffff166108fc349081150290604051600060405180830381858888f19350505050158015611a19573d6000803e3d6000fd5b507f5b1b690b017b49e02e426b145ec66a70f4259c7a0a7bfb5609363922cec65eef6000803373ffffffffffffffffffffffffffffffffffffffff1673ffffffffffffffffffffffffffffffffffffffff168152602001908152602001600020600101546000808060003373ffffffffffffffffffffffffffffffffffffffff1673ffffffffffffffffffffffffffffffffffffffff16815260200190815260200160002060020160019054906101000a900473ffffffffffffffffffffffffffffffffffffffff1673ffffffffffffffffffffffffffffffffffffffff1673ffffffffffffffffffffffffffffffffffffffff1681526020019081526020016000206001015434604051611b3093929190614a18565b60405180910390a1611b4133613b12565b5b5b5b565b600015156000803373ffffffffffffffffffffffffffffffffffffffff1673ffffffffffffffffffffffffffffffffffffffff16815260200190815260200160002060000160009054906101000a900460ff16151503611e46576001339080600181540180825580915050600190039060005260206000200160009091909190916101000a81548173ffffffffffffffffffffffffffffffffffffffff021916908373ffffffffffffffffffffffffffffffffffffffff16021790555060405180610160016040528060011515815260200160018080549050611c299190614a7e565b8152602001600280811115611c4157611c406141d5565b5b8152602001600073ffffffffffffffffffffffffffffffffffffffff1681526020016040518060400160405280600081526020016000815250815260200160405180604001604052806000815260200160008152508152602001600081526020016001151581526020016000151581526020016000815260200160008152506000803373ffffffffffffffffffffffffffffffffffffffff1673ffffffffffffffffffffffffffffffffffffffff16815260200190815260200160002060008201518160000160006101000a81548160ff0219169083151502179055506020820151816001015560408201518160020160006101000a81548160ff02191690836002811115611d5357611d526141d5565b5b021790555060608201518160020160016101000a81548173ffffffffffffffffffffffffffffffffffffffff021916908373ffffffffffffffffffffffffffffffffffffffff1602179055506080820151816003016000820151816000015560208201518160010155505060a0820151816005016000820151816000015560208201518160010155505060c0820151816007015560e08201518160080160006101000a81548160ff0219169083151502179055506101008201518160080160016101000a81548160ff021916908315150217905550610120820151816009015561014082015181600a0155905050612199565b60026000803373ffffffffffffffffffffffffffffffffffffffff1673ffffffffffffffffffffffffffffffffffffffff16815260200190815260200160002060020160006101000a81548160ff02191690836002811115611eab57611eaa6141d5565b5b021790555060008060003373ffffffffffffffffffffffffffffffffffffffff1673ffffffffffffffffffffffffffffffffffffffff16815260200190815260200160002060020160016101000a81548173ffffffffffffffffffffffffffffffffffffffff021916908373ffffffffffffffffffffffffffffffffffffffff16021790555060405180604001604052806000815260200160008152506000803373ffffffffffffffffffffffffffffffffffffffff1673ffffffffffffffffffffffffffffffffffffffff168152602001908152602001600020600301600082015181600001556020820151816001015590505060405180604001604052806000815260200160008152506000803373ffffffffffffffffffffffffffffffffffffffff1673ffffffffffffffffffffffffffffffffffffffff168152602001908152602001600020600501600082015181600001556020820151816001015590505060008060003373ffffffffffffffffffffffffffffffffffffffff1673ffffffffffffffffffffffffffffffffffffffff1681526020019081526020016000206009018190555060008060003373ffffffffffffffffffffffffffffffffffffffff1673ffffffffffffffffffffffffffffffffffffffff1681526020019081526020016000206007018190555060016000803373ffffffffffffffffffffffffffffffffffffffff1673ffffffffffffffffffffffffffffffffffffffff16815260200190815260200160002060080160006101000a81548160ff02191690831515021790555060008060003373ffffffffffffffffffffffffffffffffffffffff1673ffffffffffffffffffffffffffffffffffffffff16815260200190815260200160002060080160016101000a81548160ff02191690831515021790555060008060003373ffffffffffffffffffffffffffffffffffffffff1673ffffffffffffffffffffffffffffffffffffffff168152602001908152602001600020600a01819055505b565b600181815481106121ab57600080fd5b906000526020600020016000915054906101000a900473ffffffffffffffffffffffffffffffffffffffff1681565b600115156000803373ffffffffffffffffffffffffffffffffffffffff1673ffffffffffffffffffffffffffffffffffffffff16815260200190815260200160002060000160009054906101000a900460ff1615151461226f576040517f08c379a000000000000000000000000000000000000000000000000000000000815260040161226690614b24565b60405180910390fd5b600280811115612282576122816141d5565b5b6000803373ffffffffffffffffffffffffffffffffffffffff1673ffffffffffffffffffffffffffffffffffffffff16815260200190815260200160002060020160009054906101000a900460ff1660028111156122e3576122e26141d5565b5b14612323576040517f08c379a000000000000000000000000000000000000000000000000000000000815260040161231a90614bb6565b60405180910390fd5b600073ffffffffffffffffffffffffffffffffffffffff166000803373ffffffffffffffffffffffffffffffffffffffff1673ffffffffffffffffffffffffffffffffffffffff16815260200190815260200160002060020160019054906101000a900473ffffffffffffffffffffffffffffffffffffffff1673ffffffffffffffffffffffffffffffffffffffff16036123f3576040517f08c379a00000000000000000000000000000000000000000000000000000000081526004016123ea90614c48565b60405180910390fd5b6000803373ffffffffffffffffffffffffffffffffffffffff1673ffffffffffffffffffffffffffffffffffffffff16815260200190815260200160002060070154421115612477576040517f08c379a000000000000000000000000000000000000000000000000000000000815260040161246e90614cb4565b60405180910390fd5b60008060008060003373ffffffffffffffffffffffffffffffffffffffff1673ffffffffffffffffffffffffffffffffffffffff16815260200190815260200160002060020160019054906101000a900473ffffffffffffffffffffffffffffffffffffffff1673ffffffffffffffffffffffffffffffffffffffff1673ffffffffffffffffffffffffffffffffffffffff16815260200190815260200160002060030160010154826001815181106125335761253261458d565b5b60200260200101516125459190614cd4565b6000808060003373ffffffffffffffffffffffffffffffffffffffff1673ffffffffffffffffffffffffffffffffffffffff16815260200190815260200160002060020160019054906101000a900473ffffffffffffffffffffffffffffffffffffffff1673ffffffffffffffffffffffffffffffffffffffff1673ffffffffffffffffffffffffffffffffffffffff16815260200190815260200160002060030160010154836001815181106125ff576125fe61458d565b5b60200260200101516126119190614cd4565b61261b9190614d17565b6000808060003373ffffffffffffffffffffffffffffffffffffffff1673ffffffffffffffffffffffffffffffffffffffff16815260200190815260200160002060020160019054906101000a900473ffffffffffffffffffffffffffffffffffffffff1673ffffffffffffffffffffffffffffffffffffffff1673ffffffffffffffffffffffffffffffffffffffff16815260200190815260200160002060030160000154836000815181106126d5576126d461458d565b5b60200260200101516126e79190614cd4565b6000808060003373ffffffffffffffffffffffffffffffffffffffff1673ffffffffffffffffffffffffffffffffffffffff16815260200190815260200160002060020160019054906101000a900473ffffffffffffffffffffffffffffffffffffffff1673ffffffffffffffffffffffffffffffffffffffff1673ffffffffffffffffffffffffffffffffffffffff16815260200190815260200160002060030160000154846000815181106127a1576127a061458d565b5b60200260200101516127b39190614cd4565b6127bd9190614d17565b6127c79190614d8f565b905062cfe1da81131561280f576040517f08c379a000000000000000000000000000000000000000000000000000000000815260040161280690614e45565b60405180910390fd5b60016000803373ffffffffffffffffffffffffffffffffffffffff1673ffffffffffffffffffffffffffffffffffffffff16815260200190815260200160002060080160006101000a81548160ff02191690831515021790555060016000808060003373ffffffffffffffffffffffffffffffffffffffff1673ffffffffffffffffffffffffffffffffffffffff16815260200190815260200160002060020160019054906101000a900473ffffffffffffffffffffffffffffffffffffffff1673ffffffffffffffffffffffffffffffffffffffff1673ffffffffffffffffffffffffffffffffffffffff16815260200190815260200160002060080160006101000a81548160ff0219169083151502179055507ffecc381fcca04c8371dac7b0998f7810a51c75d32acbb1f415ceb7215b2965b56000808060003373ffffffffffffffffffffffffffffffffffffffff1673ffffffffffffffffffffffffffffffffffffffff16815260200190815260200160002060020160019054906101000a900473ffffffffffffffffffffffffffffffffffffffff1673ffffffffffffffffffffffffffffffffffffffff1673ffffffffffffffffffffffffffffffffffffffff16815260200190815260200160002060010154836040516129f7929190614f14565b60405180910390a15050565b60006020528060005260406000206000915090508060000160009054906101000a900460ff16908060010154908060020160009054906101000a900460ff16908060020160019054906101000a900473ffffffffffffffffffffffffffffffffffffffff16908060030160405180604001604052908160008201548152602001600182015481525050908060050160405180604001604052908160008201548152602001600182015481525050908060070154908060080160009054906101000a900460ff16908060080160019054906101000a900460ff169080600901549080600a015490508b565b600115156000803373ffffffffffffffffffffffffffffffffffffffff1673ffffffffffffffffffffffffffffffffffffffff16815260200190815260200160002060000160009054906101000a900460ff16151514612b82576040517f08c379a0000000000000000000000000000000000000000000000000000000008152600401612b7990614f90565b60405180910390fd5b60016002811115612b9657612b956141d5565b5b6000803373ffffffffffffffffffffffffffffffffffffffff1673ffffffffffffffffffffffffffffffffffffffff16815260200190815260200160002060020160009054906101000a900460ff166002811115612bf757612bf66141d5565b5b14612c37576040517f08c379a0000000000000000000000000000000000000000000000000000000008152600401612c2e90615022565b60405180910390fd5b600073ffffffffffffffffffffffffffffffffffffffff166000803373ffffffffffffffffffffffffffffffffffffffff1673ffffffffffffffffffffffffffffffffffffffff16815260200190815260200160002060020160019054906101000a900473ffffffffffffffffffffffffffffffffffffffff1673ffffffffffffffffffffffffffffffffffffffff1603612d07576040517f08c379a0000000000000000000000000000000000000000000000000000000008152600401612cfe906150b4565b60405180910390fd5b6000803373ffffffffffffffffffffffffffffffffffffffff1673ffffffffffffffffffffffffffffffffffffffff16815260200190815260200160002060090154346000803373ffffffffffffffffffffffffffffffffffffffff1673ffffffffffffffffffffffffffffffffffffffff168152602001908152602001600020600a0154612d9691906150d4565b1115612dd7576040517f08c379a0000000000000000000000000000000000000000000000000000000008152600401612dce90615154565b60405180910390fd5b60016000803373ffffffffffffffffffffffffffffffffffffffff1673ffffffffffffffffffffffffffffffffffffffff16815260200190815260200160002060080160016101000a81548160ff02191690831515021790555060016000808060003373ffffffffffffffffffffffffffffffffffffffff1673ffffffffffffffffffffffffffffffffffffffff16815260200190815260200160002060020160019054906101000a900473ffffffffffffffffffffffffffffffffffffffff1673ffffffffffffffffffffffffffffffffffffffff1673ffffffffffffffffffffffffffffffffffffffff16815260200190815260200160002060080160016101000a81548160ff0219169083151502179055506000803373ffffffffffffffffffffffffffffffffffffffff1673ffffffffffffffffffffffffffffffffffffffff16815260200190815260200160002060020160019054906101000a900473ffffffffffffffffffffffffffffffffffffffff1673ffffffffffffffffffffffffffffffffffffffff166108fc349081150290604051600060405180830381858888f19350505050158015612f93573d6000803e3d6000fd5b50346000803373ffffffffffffffffffffffffffffffffffffffff1673ffffffffffffffffffffffffffffffffffffffff168152602001908152602001600020600a0154612fe191906150d4565b6000803373ffffffffffffffffffffffffffffffffffffffff1673ffffffffffffffffffffffffffffffffffffffff168152602001908152602001600020600a01819055507fed8e6f0ab8a4d39cb413959065b15ac270c5baec57aee722c1268880c0b1f3d56000808060003373ffffffffffffffffffffffffffffffffffffffff1673ffffffffffffffffffffffffffffffffffffffff16815260200190815260200160002060020160019054906101000a900473ffffffffffffffffffffffffffffffffffffffff1673ffffffffffffffffffffffffffffffffffffffff1673ffffffffffffffffffffffffffffffffffffffff16815260200190815260200160002060010154346040516130f9929190614726565b60405180910390a16000803373ffffffffffffffffffffffffffffffffffffffff1673ffffffffffffffffffffffffffffffffffffffff168152602001908152602001600020600901546000803373ffffffffffffffffffffffffffffffffffffffff1673ffffffffffffffffffffffffffffffffffffffff168152602001908152602001600020600a01540361331d577f5b1b690b017b49e02e426b145ec66a70f4259c7a0a7bfb5609363922cec65eef6000803373ffffffffffffffffffffffffffffffffffffffff1673ffffffffffffffffffffffffffffffffffffffff168152602001908152602001600020600101546000808060003373ffffffffffffffffffffffffffffffffffffffff1673ffffffffffffffffffffffffffffffffffffffff16815260200190815260200160002060020160019054906101000a900473ffffffffffffffffffffffffffffffffffffffff1673ffffffffffffffffffffffffffffffffffffffff1673ffffffffffffffffffffffffffffffffffffffff1681526020019081526020016000206001015460006040516132a1939291906149e1565b60405180910390a16133136000803373ffffffffffffffffffffffffffffffffffffffff1673ffffffffffffffffffffffffffffffffffffffff16815260200190815260200160002060020160019054906101000a900473ffffffffffffffffffffffffffffffffffffffff16613b12565b61331c33613b12565b5b565b600015156000803373ffffffffffffffffffffffffffffffffffffffff1673ffffffffffffffffffffffffffffffffffffffff16815260200190815260200160002060000160009054906101000a900460ff16151503613687576001339080600181540180825580915050600190039060005260206000200160009091909190916101000a81548173ffffffffffffffffffffffffffffffffffffffff021916908373ffffffffffffffffffffffffffffffffffffffff160217905550604051806101600160405280600115158152602001600180805490506134029190614a7e565b81526020016001600281111561341b5761341a6141d5565b5b8152602001600073ffffffffffffffffffffffffffffffffffffffff16815260200160405180604001604052808660008151811061345c5761345b61458d565b5b602002602001015181526020018660018151811061347d5761347c61458d565b5b602002602001015181525081526020016040518060400160405280856000815181106134ac576134ab61458d565b5b60200260200101518152602001856001815181106134cd576134cc61458d565b5b602002602001015181525081526020016000815260200160001515815260200160001515815260200182815260200160008152506000803373ffffffffffffffffffffffffffffffffffffffff1673ffffffffffffffffffffffffffffffffffffffff16815260200190815260200160002060008201518160000160006101000a81548160ff0219169083151502179055506020820151816001015560408201518160020160006101000a81548160ff02191690836002811115613594576135936141d5565b5b021790555060608201518160020160016101000a81548173ffffffffffffffffffffffffffffffffffffffff021916908373ffffffffffffffffffffffffffffffffffffffff1602179055506080820151816003016000820151816000015560208201518160010155505060a0820151816005016000820151816000015560208201518160010155505060c0820151816007015560e08201518160080160006101000a81548160ff0219169083151502179055506101008201518160080160016101000a81548160ff021916908315150217905550610120820151816009015561014082015181600a0155905050613a41565b60016000803373ffffffffffffffffffffffffffffffffffffffff1673ffffffffffffffffffffffffffffffffffffffff16815260200190815260200160002060020160006101000a81548160ff021916908360028111156136ec576136eb6141d5565b5b021790555060008060003373ffffffffffffffffffffffffffffffffffffffff1673ffffffffffffffffffffffffffffffffffffffff16815260200190815260200160002060020160016101000a81548173ffffffffffffffffffffffffffffffffffffffff021916908373ffffffffffffffffffffffffffffffffffffffff1602179055506040518060400160405280846000815181106137915761379061458d565b5b60200260200101518152602001846001815181106137b2576137b161458d565b5b60200260200101518152506000803373ffffffffffffffffffffffffffffffffffffffff1673ffffffffffffffffffffffffffffffffffffffff16815260200190815260200160002060030160008201518160000155602082015181600101559050506040518060400160405280836000815181106138345761383361458d565b5b60200260200101518152602001836001815181106138555761385461458d565b5b60200260200101518152506000803373ffffffffffffffffffffffffffffffffffffffff1673ffffffffffffffffffffffffffffffffffffffff1681526020019081526020016000206005016000820151816000015560208201518160010155905050806000803373ffffffffffffffffffffffffffffffffffffffff1673ffffffffffffffffffffffffffffffffffffffff1681526020019081526020016000206009018190555060008060003373ffffffffffffffffffffffffffffffffffffffff1673ffffffffffffffffffffffffffffffffffffffff1681526020019081526020016000206007018190555060008060003373ffffffffffffffffffffffffffffffffffffffff1673ffffffffffffffffffffffffffffffffffffffff16815260200190815260200160002060080160006101000a81548160ff02191690831515021790555060008060003373ffffffffffffffffffffffffffffffffffffffff1673ffffffffffffffffffffffffffffffffffffffff16815260200190815260200160002060080160016101000a81548160ff02191690831515021790555060008060003373ffffffffffffffffffffffffffffffffffffffff1673ffffffffffffffffffffffffffffffffffffffff168152602001908152602001600020600a01819055505b505050565b6000600115156000803373ffffffffffffffffffffffffffffffffffffffff1673ffffffffffffffffffffffffffffffffffffffff16815260200190815260200160002060000160009054906101000a900460ff16151503613aeb576000803373ffffffffffffffffffffffffffffffffffffffff1673ffffffffffffffffffffffffffffffffffffffff168152602001908152602001600020600101549050613b0f565b7fffffffffffffffffffffffffffffffffffffffffffffffffffffffffffffffff90505b90565b60008060008373ffffffffffffffffffffffffffffffffffffffff1673ffffffffffffffffffffffffffffffffffffffff16815260200190815260200160002060020160006101000a81548160ff02191690836002811115613b7757613b766141d5565b5b021790555060008060008373ffffffffffffffffffffffffffffffffffffffff1673ffffffffffffffffffffffffffffffffffffffff16815260200190815260200160002060020160016101000a81548173ffffffffffffffffffffffffffffffffffffffff021916908373ffffffffffffffffffffffffffffffffffffffff16021790555060405180604001604052806000815260200160008152506000808373ffffffffffffffffffffffffffffffffffffffff1673ffffffffffffffffffffffffffffffffffffffff168152602001908152602001600020600301600082015181600001556020820151816001015590505060405180604001604052806000815260200160008152506000808373ffffffffffffffffffffffffffffffffffffffff1673ffffffffffffffffffffffffffffffffffffffff168152602001908152602001600020600501600082015181600001556020820151816001015590505060008060008373ffffffffffffffffffffffffffffffffffffffff1673ffffffffffffffffffffffffffffffffffffffff1681526020019081526020016000206007018190555060008060008373ffffffffffffffffffffffffffffffffffffffff1673ffffffffffffffffffffffffffffffffffffffff16815260200190815260200160002060080160006101000a81548160ff02191690831515021790555060008060008373ffffffffffffffffffffffffffffffffffffffff1673ffffffffffffffffffffffffffffffffffffffff16815260200190815260200160002060080160016101000a81548160ff02191690831515021790555060008060008373ffffffffffffffffffffffffffffffffffffffff1673ffffffffffffffffffffffffffffffffffffffff1681526020019081526020016000206009018190555060008060008373ffffffffffffffffffffffffffffffffffffffff1673ffffffffffffffffffffffffffffffffffffffff168152602001908152602001600020600a018190555050565b6000604051905090565b600080fd5b600080fd5b6000819050919050565b613e8e81613e7b565b8114613e9957600080fd5b50565b600081359050613eab81613e85565b92915050565b60008060408385031215613ec857613ec7613e71565b5b6000613ed685828601613e9c565b9250506020613ee785828601613e9c565b9150509250929050565b600060208284031215613f0757613f06613e71565b5b6000613f1584828501613e9c565b91505092915050565b600073ffffffffffffffffffffffffffffffffffffffff82169050919050565b6000613f4982613f1e565b9050919050565b613f5981613f3e565b82525050565b6000602082019050613f746000830184613f50565b92915050565b600080fd5b6000601f19601f8301169050919050565b7f4e487b7100000000000000000000000000000000000000000000000000000000600052604160045260246000fd5b613fc882613f7f565b810181811067ffffffffffffffff82111715613fe757613fe6613f90565b5b80604052505050565b6000613ffa613e67565b90506140068282613fbf565b919050565b600067ffffffffffffffff82111561402657614025613f90565b5b602082029050602081019050919050565b600080fd5b6000819050919050565b61404f8161403c565b811461405a57600080fd5b50565b60008135905061406c81614046565b92915050565b60006140856140808461400b565b613ff0565b905080838252602082019050602084028301858111156140a8576140a7614037565b5b835b818110156140d157806140bd888261405d565b8452602084019350506020810190506140aa565b5050509392505050565b600082601f8301126140f0576140ef613f7a565b5b8135614100848260208601614072565b91505092915050565b60006020828403121561411f5761411e613e71565b5b600082013567ffffffffffffffff81111561413d5761413c613e76565b5b614149848285016140db565b91505092915050565b61415b81613f3e565b811461416657600080fd5b50565b60008135905061417881614152565b92915050565b60006020828403121561419457614193613e71565b5b60006141a284828501614169565b91505092915050565b60008115159050919050565b6141c0816141ab565b82525050565b6141cf81613e7b565b82525050565b7f4e487b7100000000000000000000000000000000000000000000000000000000600052602160045260246000fd5b60038110614215576142146141d5565b5b50565b600081905061422682614204565b919050565b600061423682614218565b9050919050565b6142468161422b565b82525050565b6142558161403c565b82525050565b604082016000820151614271600085018261424c565b506020820151614284602085018261424c565b50505050565b60006101a0820190506142a0600083018e6141b7565b6142ad602083018d6141c6565b6142ba604083018c61423d565b6142c7606083018b613f50565b6142d4608083018a61425b565b6142e160c083018961425b565b6142ef6101008301886141c6565b6142fd6101208301876141b7565b61430b6101408301866141b7565b6143196101608301856141c6565b6143276101808301846141c6565b9c9b505050505050505050505050565b6000806000606084860312156143505761434f613e71565b5b600084013567ffffffffffffffff81111561436e5761436d613e76565b5b61437a868287016140db565b935050602084013567ffffffffffffffff81111561439b5761439a613e76565b5b6143a7868287016140db565b92505060406143b886828701613e9c565b9150509250925092565b6143cb8161403c565b82525050565b60006020820190506143e660008301846143c2565b92915050565b600082825260208201905092915050565b7f4e65656420746f2062652061207573657220746f2073656c656374207269646560008201527f7200000000000000000000000000000000000000000000000000000000000000602082015250565b60006144596021836143ec565b9150614464826143fd565b604082019050919050565b600060208201905081810360008301526144888161444c565b9050919050565b7f55736572206e6565647320746f20626520696e20647269766572206d6f64652060008201527f746f207069636b20726964657200000000000000000000000000000000000000602082015250565b60006144eb602d836143ec565b91506144f68261448f565b604082019050919050565b6000602082019050818103600083015261451a816144de565b9050919050565b7f6472697665722063757272656e746c7920706169726564000000000000000000600082015250565b60006145576017836143ec565b915061456282614521565b602082019050919050565b600060208201905081810360008301526145868161454a565b9050919050565b7f4e487b7100000000000000000000000000000000000000000000000000000000600052603260045260246000fd5b7f43616e6e6f74207069636b20796f757273656c66000000000000000000000000600082015250565b60006145f26014836143ec565b91506145fd826145bc565b602082019050919050565b60006020820190508181036000830152614621816145e5565b9050919050565b7f726964657220616c726561647920706169726564000000000000000000000000600082015250565b600061465e6014836143ec565b915061466982614628565b602082019050919050565b6000602082019050818103600083015261468d81614651565b9050919050565b7f75736572206265696e67207069636b65642068617320746f206265206120726960008201527f6465720000000000000000000000000000000000000000000000000000000000602082015250565b60006146f06023836143ec565b91506146fb82614694565b604082019050919050565b6000602082019050818103600083015261471f816146e3565b9050919050565b600060408201905061473b60008301856141c6565b61474860208301846141c6565b9392505050565b60008160001c9050919050565b6000819050919050565b60006147796147748361474f565b61475c565b9050919050565b60408201600080830154905061479581614766565b6147a2600086018261424c565b50600183015490506147b381614766565b6147c0602086018261424c565b5050505050565b600060c0820190506147dc60008301876141c6565b6147e96020830186614780565b6147f66060830185614780565b61480360a08301846141c6565b95945050505050565b7f4e65656420746f2062652061207573657220746f20636f6d706c65746520726960008201527f6465000000000000000000000000000000000000000000000000000000000000602082015250565b60006148686022836143ec565b91506148738261480c565b604082019050919050565b600060208201905081810360008301526148978161485b565b9050919050565b7f4e65656420746f20626520616e20616374697665207573657220746f20636f6d60008201527f706c657465207269646500000000000000000000000000000000000000000000602082015250565b60006148fa602a836143ec565b91506149058261489e565b604082019050919050565b60006020820190508181036000830152614929816148ed565b9050919050565b7f4574686572206e65656420746f2062652073656e7420746f2072657365740000600082015250565b6000614966601e836143ec565b915061497182614930565b602082019050919050565b6000602082019050818103600083015261499581614959565b9050919050565b6000819050919050565b6000819050919050565b60006149cb6149c66149c18461499c565b6149a6565b613e7b565b9050919050565b6149db816149b0565b82525050565b60006060820190506149f660008301866141c6565b614a0360208301856141c6565b614a1060408301846149d2565b949350505050565b6000606082019050614a2d60008301866141c6565b614a3a60208301856141c6565b614a4760408301846141c6565b949350505050565b7f4e487b7100000000000000000000000000000000000000000000000000000000600052601160045260246000fd5b6000614a8982613e7b565b9150614a9483613e7b565b9250828203905081811115614aac57614aab614a4f565b5b92915050565b7f4e65656420746f2062652061207573657220746f20696e666f726d207269646560008201527f7200000000000000000000000000000000000000000000000000000000000000602082015250565b6000614b0e6021836143ec565b9150614b1982614ab2565b604082019050919050565b60006020820190508181036000830152614b3d81614b01565b9050919050565b7f55736572206e6565647320746f20626520696e20647269766572206d6f64652060008201527f746f20696e666f726d2072696465720000000000000000000000000000000000602082015250565b6000614ba0602f836143ec565b9150614bab82614b44565b604082019050919050565b60006020820190508181036000830152614bcf81614b93565b9050919050565b7f447269766572206e6565647320746f206861766520616e2061737369676e656460008201527f20726964657220746f20696e666f726d00000000000000000000000000000000602082015250565b6000614c326030836143ec565b9150614c3d82614bd6565b604082019050919050565b60006020820190508181036000830152614c6181614c25565b9050919050565b7f596f752061726520746f6f206c61746520746f20617272697665000000000000600082015250565b6000614c9e601a836143ec565b9150614ca982614c68565b602082019050919050565b60006020820190508181036000830152614ccd81614c91565b9050919050565b6000614cdf8261403c565b9150614cea8361403c565b9250828203905081811260008412168282136000851215161715614d1157614d10614a4f565b5b92915050565b6000614d228261403c565b9150614d2d8361403c565b9250828202614d3b8161403c565b91507f80000000000000000000000000000000000000000000000000000000000000008414600084121615614d7357614d72614a4f565b5b8282058414831517614d8857614d87614a4f565b5b5092915050565b6000614d9a8261403c565b9150614da58361403c565b925082820190508281121560008312168382126000841215161715614dcd57614dcc614a4f565b5b92915050565b7f596f7520617265206d6f7265207468617420302e32206d696c6573206177617960008201527f2066726f6d207468652072696465720000000000000000000000000000000000602082015250565b6000614e2f602f836143ec565b9150614e3a82614dd3565b604082019050919050565b60006020820190508181036000830152614e5e81614e22565b9050919050565b600081519050919050565b600082825260208201905092915050565b6000819050602082019050919050565b6000614e9d838361424c565b60208301905092915050565b6000602082019050919050565b6000614ec182614e65565b614ecb8185614e70565b9350614ed683614e81565b8060005b83811015614f07578151614eee8882614e91565b9750614ef983614ea9565b925050600181019050614eda565b5085935050505092915050565b6000604082019050614f2960008301856141c6565b8181036020830152614f3b8184614eb6565b90509392505050565b7f4e65656420746f2062652061207573657220746f207061790000000000000000600082015250565b6000614f7a6018836143ec565b9150614f8582614f44565b602082019050919050565b60006020820190508181036000830152614fa981614f6d565b9050919050565b7f55736572206e6565647320746f20626520696e207269646572206d6f6465207460008201527f6f20706179206472697665720000000000000000000000000000000000000000602082015250565b600061500c602c836143ec565b915061501782614fb0565b604082019050919050565b6000602082019050818103600083015261503b81614fff565b9050919050565b7f5269646572206e6565647320746f206861766520616e2061737369676e65642060008201527f64726976657220746f2070617900000000000000000000000000000000000000602082015250565b600061509e602d836143ec565b91506150a982615042565b604082019050919050565b600060208201905081810360008301526150cd81615091565b9050919050565b60006150df82613e7b565b91506150ea83613e7b565b925082820190508082111561510257615101614a4f565b5b92915050565b7f4f76657264726166742066726f6d20696e697469616c20657363726f77000000600082015250565b600061513e601d836143ec565b915061514982615108565b602082019050919050565b6000602082019050818103600083015261516d81615131565b905091905056fea2646970667358221220157385761b1a491351bc4a68fd1a96c80dd12d301d2431ed9a7790282a72611f64736f6c63430008180033",
  "linkReferences": {},
  "deployedLinkReferences": {}
}